{
  "contractName": "SolnSquareVerifier",
  "abi": [
    {
      "constant": true,
      "inputs": [
        {
          "name": "interfaceId",
          "type": "bytes4"
        }
      ],
      "name": "supportsInterface",
      "outputs": [
        {
          "name": "",
          "type": "bool"
        }
      ],
      "payable": false,
      "stateMutability": "view",
      "type": "function",
      "signature": "0x01ffc9a7"
    },
    {
      "constant": true,
      "inputs": [],
      "name": "name",
      "outputs": [
        {
          "name": "",
          "type": "string"
        }
      ],
      "payable": false,
      "stateMutability": "view",
      "type": "function",
      "signature": "0x06fdde03"
    },
    {
      "constant": true,
      "inputs": [
        {
          "name": "tokenId",
          "type": "uint256"
        }
      ],
      "name": "getApproved",
      "outputs": [
        {
          "name": "",
          "type": "address"
        }
      ],
      "payable": false,
      "stateMutability": "view",
      "type": "function",
      "signature": "0x081812fc"
    },
    {
      "constant": false,
      "inputs": [
        {
          "name": "to",
          "type": "address"
        },
        {
          "name": "tokenId",
          "type": "uint256"
        }
      ],
      "name": "approve",
      "outputs": [],
      "payable": false,
      "stateMutability": "nonpayable",
      "type": "function",
      "signature": "0x095ea7b3"
    },
    {
      "constant": true,
      "inputs": [],
      "name": "totalSupply",
      "outputs": [
        {
          "name": "",
          "type": "uint256"
        }
      ],
      "payable": false,
      "stateMutability": "view",
      "type": "function",
      "signature": "0x18160ddd"
    },
    {
      "constant": false,
      "inputs": [
        {
          "name": "from",
          "type": "address"
        },
        {
          "name": "to",
          "type": "address"
        },
        {
          "name": "tokenId",
          "type": "uint256"
        }
      ],
      "name": "transferFrom",
      "outputs": [],
      "payable": false,
      "stateMutability": "nonpayable",
      "type": "function",
      "signature": "0x23b872dd"
    },
    {
      "constant": false,
      "inputs": [
        {
          "name": "_myid",
          "type": "bytes32"
        },
        {
          "name": "_result",
          "type": "string"
        }
      ],
      "name": "__callback",
      "outputs": [],
      "payable": false,
      "stateMutability": "nonpayable",
      "type": "function",
      "signature": "0x27dc297e"
    },
    {
      "constant": true,
      "inputs": [
        {
          "name": "owner",
          "type": "address"
        },
        {
          "name": "index",
          "type": "uint256"
        }
      ],
      "name": "tokenOfOwnerByIndex",
      "outputs": [
        {
          "name": "",
          "type": "uint256"
        }
      ],
      "payable": false,
      "stateMutability": "view",
      "type": "function",
      "signature": "0x2f745c59"
    },
    {
      "constant": false,
      "inputs": [
        {
          "name": "_myid",
          "type": "bytes32"
        },
        {
          "name": "_result",
          "type": "string"
        },
        {
          "name": "_proof",
          "type": "bytes"
        }
      ],
      "name": "__callback",
      "outputs": [],
      "payable": false,
      "stateMutability": "nonpayable",
      "type": "function",
      "signature": "0x38bbfa50"
    },
    {
      "constant": false,
      "inputs": [
        {
          "name": "to",
          "type": "address"
        },
        {
          "name": "tokenId",
          "type": "uint256"
        }
      ],
      "name": "mint",
      "outputs": [
        {
          "name": "",
          "type": "bool"
        }
      ],
      "payable": false,
      "stateMutability": "nonpayable",
      "type": "function",
      "signature": "0x40c10f19"
    },
    {
      "constant": false,
      "inputs": [
        {
          "name": "from",
          "type": "address"
        },
        {
          "name": "to",
          "type": "address"
        },
        {
          "name": "tokenId",
          "type": "uint256"
        }
      ],
      "name": "safeTransferFrom",
      "outputs": [],
      "payable": false,
      "stateMutability": "nonpayable",
      "type": "function",
      "signature": "0x42842e0e"
    },
    {
      "constant": true,
      "inputs": [
        {
          "name": "index",
          "type": "uint256"
        }
      ],
      "name": "tokenByIndex",
      "outputs": [
        {
          "name": "",
          "type": "uint256"
        }
      ],
      "payable": false,
      "stateMutability": "view",
      "type": "function",
      "signature": "0x4f6ccce7"
    },
    {
      "constant": true,
      "inputs": [],
      "name": "counter",
      "outputs": [
        {
          "name": "",
          "type": "uint256"
        }
      ],
      "payable": false,
      "stateMutability": "view",
      "type": "function",
      "signature": "0x61bc221a"
    },
    {
      "constant": true,
      "inputs": [
        {
          "name": "tokenId",
          "type": "uint256"
        }
      ],
      "name": "ownerOf",
      "outputs": [
        {
          "name": "",
          "type": "address"
        }
      ],
      "payable": false,
      "stateMutability": "view",
      "type": "function",
      "signature": "0x6352211e"
    },
    {
      "constant": true,
      "inputs": [
        {
          "name": "owner",
          "type": "address"
        }
      ],
      "name": "balanceOf",
      "outputs": [
        {
          "name": "",
          "type": "uint256"
        }
      ],
      "payable": false,
      "stateMutability": "view",
      "type": "function",
      "signature": "0x70a08231"
    },
    {
      "constant": true,
      "inputs": [],
      "name": "getOwner",
      "outputs": [
        {
          "name": "",
          "type": "address"
        }
      ],
      "payable": false,
      "stateMutability": "view",
      "type": "function",
      "signature": "0x893d20e8"
    },
    {
      "constant": true,
      "inputs": [],
      "name": "symbol",
      "outputs": [
        {
          "name": "",
          "type": "string"
        }
      ],
      "payable": false,
      "stateMutability": "view",
      "type": "function",
      "signature": "0x95d89b41"
    },
    {
      "constant": false,
      "inputs": [
        {
          "name": "to",
          "type": "address"
        },
        {
          "name": "approved",
          "type": "bool"
        }
      ],
      "name": "setApprovalForAll",
      "outputs": [],
      "payable": false,
      "stateMutability": "nonpayable",
      "type": "function",
      "signature": "0xa22cb465"
    },
    {
      "constant": false,
      "inputs": [
        {
          "name": "state",
          "type": "bool"
        }
      ],
      "name": "setState",
      "outputs": [],
      "payable": false,
      "stateMutability": "nonpayable",
      "type": "function",
      "signature": "0xac9f0222"
    },
    {
      "constant": true,
      "inputs": [
        {
          "name": "",
          "type": "uint256"
        }
      ],
      "name": "solutions",
      "outputs": [
        {
          "name": "owner",
          "type": "address"
        },
        {
          "name": "exits",
          "type": "bool"
        }
      ],
      "payable": false,
      "stateMutability": "view",
      "type": "function",
      "signature": "0xb71698c7"
    },
    {
      "constant": false,
      "inputs": [
        {
          "name": "from",
          "type": "address"
        },
        {
          "name": "to",
          "type": "address"
        },
        {
          "name": "tokenId",
          "type": "uint256"
        },
        {
          "name": "_data",
          "type": "bytes"
        }
      ],
      "name": "safeTransferFrom",
      "outputs": [],
      "payable": false,
      "stateMutability": "nonpayable",
      "type": "function",
      "signature": "0xb88d4fde"
    },
    {
      "constant": true,
      "inputs": [
        {
          "name": "tokenId",
          "type": "uint256"
        }
      ],
      "name": "tokenURI",
      "outputs": [
        {
          "name": "",
          "type": "string"
        }
      ],
      "payable": false,
      "stateMutability": "view",
      "type": "function",
      "signature": "0xc87b56dd"
    },
    {
      "constant": true,
      "inputs": [],
      "name": "baseTokenURI",
      "outputs": [
        {
          "name": "",
          "type": "string"
        }
      ],
      "payable": false,
      "stateMutability": "view",
      "type": "function",
      "signature": "0xd547cfb7"
    },
    {
      "constant": true,
      "inputs": [
        {
          "name": "owner",
          "type": "address"
        },
        {
          "name": "operator",
          "type": "address"
        }
      ],
      "name": "isApprovedForAll",
      "outputs": [
        {
          "name": "",
          "type": "bool"
        }
      ],
      "payable": false,
      "stateMutability": "view",
      "type": "function",
      "signature": "0xe985e9c5"
    },
    {
      "constant": false,
      "inputs": [
        {
          "name": "newOwner",
          "type": "address"
        }
      ],
      "name": "transferOwnership",
      "outputs": [],
      "payable": false,
      "stateMutability": "nonpayable",
      "type": "function",
      "signature": "0xf2fde38b"
    },
    {
      "inputs": [
        {
          "name": "name",
          "type": "string"
        },
        {
          "name": "symbol",
          "type": "string"
        }
      ],
      "payable": false,
      "stateMutability": "nonpayable",
      "type": "constructor",
      "signature": "constructor"
    },
    {
      "anonymous": false,
      "inputs": [
        {
          "indexed": false,
          "name": "index",
          "type": "uint256"
        }
      ],
      "name": "solutionAdded",
      "type": "event",
      "signature": "0x3198a238243ab0d4aeea80d0f4f55a6a0a8cccb4e2b5a96c21685d6fc317cc91"
    },
    {
      "anonymous": false,
      "inputs": [
        {
          "indexed": true,
          "name": "from",
          "type": "address"
        },
        {
          "indexed": true,
          "name": "to",
          "type": "address"
        },
        {
          "indexed": true,
          "name": "tokenId",
          "type": "uint256"
        }
      ],
      "name": "Transfer",
      "type": "event",
      "signature": "0xddf252ad1be2c89b69c2b068fc378daa952ba7f163c4a11628f55a4df523b3ef"
    },
    {
      "anonymous": false,
      "inputs": [
        {
          "indexed": true,
          "name": "owner",
          "type": "address"
        },
        {
          "indexed": true,
          "name": "approved",
          "type": "address"
        },
        {
          "indexed": true,
          "name": "tokenId",
          "type": "uint256"
        }
      ],
      "name": "Approval",
      "type": "event",
      "signature": "0x8c5be1e5ebec7d5bd14f71427d1e84f3dd0314c0f7b2291e5b200ac8c7c3b925"
    },
    {
      "anonymous": false,
      "inputs": [
        {
          "indexed": true,
          "name": "owner",
          "type": "address"
        },
        {
          "indexed": true,
          "name": "operator",
          "type": "address"
        },
        {
          "indexed": false,
          "name": "approved",
          "type": "bool"
        }
      ],
      "name": "ApprovalForAll",
      "type": "event",
      "signature": "0x17307eab39ab6107e8899845ad3d59bd9653f200f220920489ca2b5937696c31"
    },
    {
      "anonymous": false,
      "inputs": [
        {
          "indexed": false,
          "name": "sender",
          "type": "address"
        }
      ],
      "name": "Paused",
      "type": "event",
      "signature": "0x62e78cea01bee320cd4e420270b5ea74000d11b0c9f74754ebdbfc544b05a258"
    },
    {
      "anonymous": false,
      "inputs": [
        {
          "indexed": false,
          "name": "sender",
          "type": "address"
        }
      ],
      "name": "Unpaused",
      "type": "event",
      "signature": "0x5db9ee0a495bf2e6ff9c91a7834c1ba4fdd244a5e8aa4e537bd38aeae4b073aa"
    },
    {
      "anonymous": false,
      "inputs": [
        {
          "indexed": false,
          "name": "owner",
          "type": "address"
        }
      ],
      "name": "ownershipAnnounce",
      "type": "event",
      "signature": "0x5f3d5def3b13286551f31ec91a702a2cf81814c311a82bfe55f77863e8e50398"
    },
    {
      "constant": false,
      "inputs": [
        {
          "name": "a",
          "type": "uint256[2]"
        },
        {
          "name": "b",
          "type": "uint256[2][2]"
        },
        {
          "name": "c",
          "type": "uint256[2]"
        },
        {
          "name": "inputs",
          "type": "uint256[2]"
        }
      ],
      "name": "addSolution",
      "outputs": [],
      "payable": false,
      "stateMutability": "nonpayable",
      "type": "function",
      "signature": "0xf76b4431"
    },
    {
      "constant": false,
      "inputs": [
        {
          "name": "to",
          "type": "address"
        },
        {
          "name": "tokenId",
          "type": "uint256"
        },
        {
          "name": "index",
          "type": "uint256"
        }
      ],
      "name": "mintNFT",
      "outputs": [
        {
          "name": "",
          "type": "bool"
        }
      ],
      "payable": false,
      "stateMutability": "nonpayable",
      "type": "function",
      "signature": "0x5a9d10a2"
    }
  ],
  "bytecode": "0x60806040526200000e62000495565b604051809103906000f0801580156200002b573d6000803e3d6000fd5b50601360006101000a81548173ffffffffffffffffffffffffffffffffffffffff021916908373ffffffffffffffffffffffffffffffffffffffff16021790555060006014553480156200007e57600080fd5b50604051620051543803806200515483398101806040526040811015620000a457600080fd5b810190808051640100000000811115620000bd57600080fd5b82810190506020810184811115620000d457600080fd5b8151856001820283011164010000000082111715620000f257600080fd5b505092919060200180516401000000008111156200010f57600080fd5b828101905060208101848111156200012657600080fd5b81518560018202830111640100000000821117156200014457600080fd5b505092919050505081818181606060405190810160405280603f81526020017f68747470733a2f2f73332d75732d776573742d322e616d617a6f6e6177732e6381526020017f6f6d2f756461636974792d626c6f636b636861696e2f63617073746f6e652f00815250336000806101000a81548173ffffffffffffffffffffffffffffffffffffffff021916908373ffffffffffffffffffffffffffffffffffffffff1602179055507f5f3d5def3b13286551f31ec91a702a2cf81814c311a82bfe55f77863e8e503986000809054906101000a900473ffffffffffffffffffffffffffffffffffffffff16604051808273ffffffffffffffffffffffffffffffffffffffff1673ffffffffffffffffffffffffffffffffffffffff16815260200191505060405180910390a160008060146101000a81548160ff021916908315150217905550620002c86301ffc9a77c010000000000000000000000000000000000000000000000000000000002620003d7640100000000026401000000009004565b620003056380ac58cd7c010000000000000000000000000000000000000000000000000000000002620003d7640100000000026401000000009004565b6200034263780e9d637c010000000000000000000000000000000000000000000000000000000002620003d7640100000000026401000000009004565b82600f90805190602001906200035a929190620004a6565b50816010908051906020019062000373929190620004a6565b5080601190805190602001906200038c929190620004a6565b50620003ca635b5e139f7c010000000000000000000000000000000000000000000000000000000002620003d7640100000000026401000000009004565b5050505050505062000555565b63ffffffff7c010000000000000000000000000000000000000000000000000000000002817bffffffffffffffffffffffffffffffffffffffffffffffffffffffff1916141515156200042957600080fd5b6001806000837bffffffffffffffffffffffffffffffffffffffffffffffffffffffff19167bffffffffffffffffffffffffffffffffffffffffffffffffffffffff1916815260200190815260200160002060006101000a81548160ff02191690831515021790555050565b6040516111c58062003f8f83390190565b828054600181600116156101000203166002900490600052602060002090601f016020900481019282601f10620004e957805160ff19168380011785556200051a565b828001600101855582156200051a579182015b8281111562000519578251825591602001919060010190620004fc565b5b5090506200052991906200052d565b5090565b6200055291905b808211156200054e57600081600090555060010162000534565b5090565b90565b613a2a80620005656000396000f3fe60806040526004361061015f576000357c0100000000000000000000000000000000000000000000000000000000900463ffffffff16806301ffc9a71461016457806306fdde03146101d6578063081812fc14610266578063095ea7b3146102e157806318160ddd1461033c57806323b872dd1461036757806327dc297e146103e25780632f745c59146104b457806338bbfa501461052357806340c10f191461068c57806342842e0e146106ff5780634f6ccce71461077a5780635a9d10a2146107c957806361bc221a146108465780636352211e1461087157806370a08231146108ec578063893d20e81461095157806395d89b41146109a8578063a22cb46514610a38578063ac9f022214610a95578063b71698c714610ad2578063b88d4fde14610b58578063c87b56dd14610c6a578063d547cfb714610d1e578063e985e9c514610dae578063f2fde38b14610e37578063f76b443114610e88575b600080fd5b34801561017057600080fd5b506101bc6004803603602081101561018757600080fd5b8101908080357bffffffffffffffffffffffffffffffffffffffffffffffffffffffff19169060200190929190505050610ff6565b604051808215151515815260200191505060405180910390f35b3480156101e257600080fd5b506101eb61105e565b6040518080602001828103825283818151815260200191508051906020019080838360005b8381101561022b578082015181840152602081019050610210565b50505050905090810190601f1680156102585780820380516001836020036101000a031916815260200191505b509250505060405180910390f35b34801561027257600080fd5b5061029f6004803603602081101561028957600080fd5b8101908080359060200190929190505050611100565b604051808273ffffffffffffffffffffffffffffffffffffffff1673ffffffffffffffffffffffffffffffffffffffff16815260200191505060405180910390f35b3480156102ed57600080fd5b5061033a6004803603604081101561030457600080fd5b81019080803573ffffffffffffffffffffffffffffffffffffffff16906020019092919080359060200190929190505050611151565b005b34801561034857600080fd5b50610351611414565b6040518082815260200191505060405180910390f35b34801561037357600080fd5b506103e06004803603606081101561038a57600080fd5b81019080803573ffffffffffffffffffffffffffffffffffffffff169060200190929190803573ffffffffffffffffffffffffffffffffffffffff16906020019092919080359060200190929190505050611421565b005b3480156103ee57600080fd5b506104b26004803603604081101561040557600080fd5b81019080803590602001909291908035906020019064010000000081111561042c57600080fd5b82018360208201111561043e57600080fd5b8035906020019184600183028401116401000000008311171561046057600080fd5b91908080601f016020809104026020016040519081016040528093929190818152602001838380828437600081840152601f19601f820116905080830192505050505050509192919290505050611446565b005b3480156104c057600080fd5b5061050d600480360360408110156104d757600080fd5b81019080803573ffffffffffffffffffffffffffffffffffffffff16906020019092919080359060200190929190505050611489565b6040518082815260200191505060405180910390f35b34801561052f57600080fd5b5061068a6004803603606081101561054657600080fd5b81019080803590602001909291908035906020019064010000000081111561056d57600080fd5b82018360208201111561057f57600080fd5b803590602001918460018302840111640100000000831117156105a157600080fd5b91908080601f016020809104026020016040519081016040528093929190818152602001838380828437600081840152601f19601f8201169050808301925050505050505091929192908035906020019064010000000081111561060457600080fd5b82018360208201111561061657600080fd5b8035906020019184600183028401116401000000008311171561063857600080fd5b91908080601f016020809104026020016040519081016040528093929190818152602001838380828437600081840152601f19601f820116905080830192505050505050509192919290505050611500565b005b34801561069857600080fd5b506106e5600480360360408110156106af57600080fd5b81019080803573ffffffffffffffffffffffffffffffffffffffff16906020019092919080359060200190929190505050611505565b604051808215151515815260200191505060405180910390f35b34801561070b57600080fd5b506107786004803603606081101561072257600080fd5b81019080803573ffffffffffffffffffffffffffffffffffffffff169060200190929190803573ffffffffffffffffffffffffffffffffffffffff169060200190929190803590602001909291905050506115e8565b005b34801561078657600080fd5b506107b36004803603602081101561079d57600080fd5b8101908080359060200190929190505050611609565b6040518082815260200191505060405180910390f35b3480156107d557600080fd5b5061082c600480360360608110156107ec57600080fd5b81019080803573ffffffffffffffffffffffffffffffffffffffff1690602001909291908035906020019092919080359060200190929190505050611641565b604051808215151515815260200191505060405180910390f35b34801561085257600080fd5b5061085b611a97565b6040518082815260200191505060405180910390f35b34801561087d57600080fd5b506108aa6004803603602081101561089457600080fd5b8101908080359060200190929190505050611a9d565b604051808273ffffffffffffffffffffffffffffffffffffffff1673ffffffffffffffffffffffffffffffffffffffff16815260200191505060405180910390f35b3480156108f857600080fd5b5061093b6004803603602081101561090f57600080fd5b81019080803573ffffffffffffffffffffffffffffffffffffffff169060200190929190505050611b48565b6040518082815260200191505060405180910390f35b34801561095d57600080fd5b50610966611bd3565b604051808273ffffffffffffffffffffffffffffffffffffffff1673ffffffffffffffffffffffffffffffffffffffff16815260200191505060405180910390f35b3480156109b457600080fd5b506109bd611bfc565b6040518080602001828103825283818151815260200191508051906020019080838360005b838110156109fd5780820151818401526020810190506109e2565b50505050905090810190601f168015610a2a5780820380516001836020036101000a031916815260200191505b509250505060405180910390f35b348015610a4457600080fd5b50610a9360048036036040811015610a5b57600080fd5b81019080803573ffffffffffffffffffffffffffffffffffffffff169060200190929190803515159060200190929190505050611c9e565b005b348015610aa157600080fd5b50610ad060048036036020811015610ab857600080fd5b81019080803515159060200190929190505050611dda565b005b348015610ade57600080fd5b50610b0b60048036036020811015610af557600080fd5b8101908080359060200190929190505050611f6c565b604051808373ffffffffffffffffffffffffffffffffffffffff1673ffffffffffffffffffffffffffffffffffffffff168152602001821515151581526020019250505060405180910390f35b348015610b6457600080fd5b50610c6860048036036080811015610b7b57600080fd5b81019080803573ffffffffffffffffffffffffffffffffffffffff169060200190929190803573ffffffffffffffffffffffffffffffffffffffff1690602001909291908035906020019092919080359060200190640100000000811115610be257600080fd5b820183602082011115610bf457600080fd5b80359060200191846001830284011164010000000083111715610c1657600080fd5b91908080601f016020809104026020016040519081016040528093929190818152602001838380828437600081840152601f19601f820116905080830192505050505050509192919290505050611fcc565b005b348015610c7657600080fd5b50610ca360048036036020811015610c8d57600080fd5b8101908080359060200190929190505050611ff4565b6040518080602001828103825283818151815260200191508051906020019080838360005b83811015610ce3578082015181840152602081019050610cc8565b50505050905090810190601f168015610d105780820380516001836020036101000a031916815260200191505b509250505060405180910390f35b348015610d2a57600080fd5b50610d336120bd565b6040518080602001828103825283818151815260200191508051906020019080838360005b83811015610d73578082015181840152602081019050610d58565b50505050905090810190601f168015610da05780820380516001836020036101000a031916815260200191505b509250505060405180910390f35b348015610dba57600080fd5b50610e1d60048036036040811015610dd157600080fd5b81019080803573ffffffffffffffffffffffffffffffffffffffff169060200190929190803573ffffffffffffffffffffffffffffffffffffffff16906020019092919050505061215f565b604051808215151515815260200191505060405180910390f35b348015610e4357600080fd5b50610e8660048036036020811015610e5a57600080fd5b81019080803573ffffffffffffffffffffffffffffffffffffffff1690602001909291905050506121f3565b005b348015610e9457600080fd5b50610ff46004803603610140811015610eac57600080fd5b8101908080604001906002806020026040519081016040528092919082600260200280828437600081840152601f19601f82011690508083019250505050505091929192908060800190600280602002604051908101604052809291906000905b82821015610f61578382604002016002806020026040519081016040528092919082600260200280828437600081840152601f19601f82011690508083019250505050505081526020019060010190610f0d565b50505050919291929080604001906002806020026040519081016040528092919082600260200280828437600081840152601f19601f820116905080830192505050505050919291929080604001906002806020026040519081016040528092919082600260200280828437600081840152601f19601f8201169050808301925050505050509192919290505050612392565b005b600060016000837bffffffffffffffffffffffffffffffffffffffffffffffffffffffff19167bffffffffffffffffffffffffffffffffffffffffffffffffffffffff1916815260200190815260200160002060009054906101000a900460ff169050919050565b6060600f8054600181600116156101000203166002900480601f0160208091040260200160405190810160405280929190818152602001828054600181600116156101000203166002900480156110f65780601f106110cb576101008083540402835291602001916110f6565b820191906000526020600020905b8154815290600101906020018083116110d957829003601f168201915b5050505050905090565b600061110b82612537565b151561111657600080fd5b6003600083815260200190815260200160002060009054906101000a900473ffffffffffffffffffffffffffffffffffffffff169050919050565b61115a81611a9d565b73ffffffffffffffffffffffffffffffffffffffff168273ffffffffffffffffffffffffffffffffffffffff1614151515611223576040517f08c379a000000000000000000000000000000000000000000000000000000000815260040180806020018281038252602b8152602001807f476976656e206164647265737320697320616c7265616479206f776e6572206f81526020017f662074686520746f6b656e00000000000000000000000000000000000000000081525060400191505060405180910390fd5b6002600082815260200190815260200160002060009054906101000a900473ffffffffffffffffffffffffffffffffffffffff1673ffffffffffffffffffffffffffffffffffffffff163373ffffffffffffffffffffffffffffffffffffffff1614806112c957506112c86002600083815260200190815260200160002060009054906101000a900473ffffffffffffffffffffffffffffffffffffffff163361215f565b5b1515611363576040517f08c379a00000000000000000000000000000000000000000000000000000000081526004018080602001828103825260268152602001807f416374696f6e207265717569726520746f6b656e206f776e6572206f7220617081526020017f70726f76616c000000000000000000000000000000000000000000000000000081525060400191505060405180910390fd5b816003600083815260200190815260200160002060006101000a81548173ffffffffffffffffffffffffffffffffffffffff021916908373ffffffffffffffffffffffffffffffffffffffff160217905550803373ffffffffffffffffffffffffffffffffffffffff168373ffffffffffffffffffffffffffffffffffffffff167f8c5be1e5ebec7d5bd14f71427d1e84f3dd0314c0f7b2291e5b200ac8c7c3b92560405160405180910390a45050565b6000600880549050905090565b61142b33826125a9565b151561143657600080fd5b61144183838361263e565b505050565b611485828260006040519080825280601f01601f19166020018201604052801561147f5781602001600182028038833980820191505090505b50611500565b5050565b600061149483611b48565b821015156114a157600080fd5b600660008473ffffffffffffffffffffffffffffffffffffffff1673ffffffffffffffffffffffffffffffffffffffff168152602001908152602001600020828154811015156114ed57fe5b9060005260206000200154905092915050565b505050565b60008060009054906101000a900473ffffffffffffffffffffffffffffffffffffffff1673ffffffffffffffffffffffffffffffffffffffff163373ffffffffffffffffffffffffffffffffffffffff161415156115cb576040517f08c379a00000000000000000000000000000000000000000000000000000000081526004018080602001828103825260158152602001807f496e76616c6964204f776e65722041646472657373000000000000000000000081525060200191505060405180910390fd5b6115d58383612662565b6115de82612683565b6001905092915050565b6116048383836020604051908101604052806000815250611fcc565b505050565b6000611613611414565b8210151561162057600080fd5b60088281548110151561162f57fe5b90600052602060002001549050919050565b60003373ffffffffffffffffffffffffffffffffffffffff1660158381548110151561166957fe5b90600052602060002090600c020160000160009054906101000a900473ffffffffffffffffffffffffffffffffffffffff1673ffffffffffffffffffffffffffffffffffffffff1614151561174c576040517f08c379a00000000000000000000000000000000000000000000000000000000081526004018080602001828103825260288152602001807f4f6e6c7920736f6c7574696f6e206f776e65722063616e206d696e742074686981526020017f7320746f6b656e2e00000000000000000000000000000000000000000000000081525060400191505060405180910390fd5b6016600083815260200190815260200160002060009054906101000a900460ff161515156117e2576040517f08c379a00000000000000000000000000000000000000000000000000000000081526004018080602001828103825260168152602001807f536f6c7574696f6e20616c72656164792061646465640000000000000000000081525060200191505060405180910390fd5b601360009054906101000a900473ffffffffffffffffffffffffffffffffffffffff1673ffffffffffffffffffffffffffffffffffffffff1663621e9ec060158481548110151561182f57fe5b90600052602060002090600c020160010160158581548110151561184f57fe5b90600052602060002090600c020160030160158681548110151561186f57fe5b90600052602060002090600c020160070160158781548110151561188f57fe5b90600052602060002090600c02016009016040518563ffffffff167c01000000000000000000000000000000000000000000000000000000000281526004018085600280156118f3576020028201915b8154815260200190600101908083116118df575b50508460028015611938576040028201915b8160028015611929576020028201915b815481526020019060010190808311611915575b50509060020190808311611905575b5050836002801561195e576020028201915b81548152602001906001019080831161194a575b50508260028015611984576020028201915b815481526020019060010190808311611970575b5050945050505050602060405180830381600087803b1580156119a657600080fd5b505af11580156119ba573d6000803e3d6000fd5b505050506040513d60208110156119d057600080fd5b81019080805190602001909291905050501515611a55576040517f08c379a000000000000000000000000000000000000000000000000000000000815260040180806020018281038252600d8152602001807f496e76616c69642070726f6f660000000000000000000000000000000000000081525060200191505060405180910390fd5b611a5f8484611505565b5060016016600084815260200190815260200160002060006101000a81548160ff021916908315150217905550600190509392505050565b60145481565b60008073ffffffffffffffffffffffffffffffffffffffff166002600084815260200190815260200160002060009054906101000a900473ffffffffffffffffffffffffffffffffffffffff1673ffffffffffffffffffffffffffffffffffffffff1614151515611b0d57600080fd5b6002600083815260200190815260200160002060009054906101000a900473ffffffffffffffffffffffffffffffffffffffff169050919050565b60008073ffffffffffffffffffffffffffffffffffffffff168273ffffffffffffffffffffffffffffffffffffffff1614151515611b8557600080fd5b611bcc600460008473ffffffffffffffffffffffffffffffffffffffff1673ffffffffffffffffffffffffffffffffffffffff16815260200190815260200160002061276d565b9050919050565b60008060009054906101000a900473ffffffffffffffffffffffffffffffffffffffff16905090565b606060108054600181600116156101000203166002900480601f016020809104026020016040519081016040528092919081815260200182805460018160011615610100020316600290048015611c945780601f10611c6957610100808354040283529160200191611c94565b820191906000526020600020905b815481529060010190602001808311611c7757829003601f168201915b5050505050905090565b3373ffffffffffffffffffffffffffffffffffffffff168273ffffffffffffffffffffffffffffffffffffffff1614151515611cd957600080fd5b80600560003373ffffffffffffffffffffffffffffffffffffffff1673ffffffffffffffffffffffffffffffffffffffff16815260200190815260200160002060008473ffffffffffffffffffffffffffffffffffffffff1673ffffffffffffffffffffffffffffffffffffffff16815260200190815260200160002060006101000a81548160ff0219169083151502179055508173ffffffffffffffffffffffffffffffffffffffff163373ffffffffffffffffffffffffffffffffffffffff167f17307eab39ab6107e8899845ad3d59bd9653f200f220920489ca2b5937696c3183604051808215151515815260200191505060405180910390a35050565b6000809054906101000a900473ffffffffffffffffffffffffffffffffffffffff1673ffffffffffffffffffffffffffffffffffffffff163373ffffffffffffffffffffffffffffffffffffffff16141515611e9e576040517f08c379a00000000000000000000000000000000000000000000000000000000081526004018080602001828103825260158152602001807f496e76616c6964204f776e65722041646472657373000000000000000000000081525060200191505060405180910390fd5b801515600060149054906101000a900460ff16151514151515611f4f576040517f08c379a00000000000000000000000000000000000000000000000000000000081526004018080602001828103825260218152602001807f436f6e747261637420697320616c72656164792069732074686973207374617481526020017f650000000000000000000000000000000000000000000000000000000000000081525060400191505060405180910390fd5b80600060146101000a81548160ff02191690831515021790555050565b601581815481101515611f7b57fe5b90600052602060002090600c02016000915090508060000160009054906101000a900473ffffffffffffffffffffffffffffffffffffffff169080600b0160009054906101000a900460ff16905082565b611fd7848484611421565b611fe38484848461277b565b1515611fee57600080fd5b50505050565b6060611fff82612537565b151561200a57600080fd5b601260008381526020019081526020016000208054600181600116156101000203166002900480601f0160208091040260200160405190810160405280929190818152602001828054600181600116156101000203166002900480156120b15780601f10612086576101008083540402835291602001916120b1565b820191906000526020600020905b81548152906001019060200180831161209457829003601f168201915b50505050509050919050565b606060118054600181600116156101000203166002900480601f0160208091040260200160405190810160405280929190818152602001828054600181600116156101000203166002900480156121555780601f1061212a57610100808354040283529160200191612155565b820191906000526020600020905b81548152906001019060200180831161213857829003601f168201915b5050505050905090565b6000600560008473ffffffffffffffffffffffffffffffffffffffff1673ffffffffffffffffffffffffffffffffffffffff16815260200190815260200160002060008373ffffffffffffffffffffffffffffffffffffffff1673ffffffffffffffffffffffffffffffffffffffff16815260200190815260200160002060009054906101000a900460ff16905092915050565b6000809054906101000a900473ffffffffffffffffffffffffffffffffffffffff1673ffffffffffffffffffffffffffffffffffffffff163373ffffffffffffffffffffffffffffffffffffffff161415156122b7576040517f08c379a00000000000000000000000000000000000000000000000000000000081526004018080602001828103825260158152602001807f496e76616c6964204f776e65722041646472657373000000000000000000000081525060200191505060405180910390fd5b6122c08161299e565b15156122cb57600080fd5b806000806101000a81548173ffffffffffffffffffffffffffffffffffffffff021916908373ffffffffffffffffffffffffffffffffffffffff1602179055507f5f3d5def3b13286551f31ec91a702a2cf81814c311a82bfe55f77863e8e503986000809054906101000a900473ffffffffffffffffffffffffffffffffffffffff16604051808273ffffffffffffffffffffffffffffffffffffffff1673ffffffffffffffffffffffffffffffffffffffff16815260200191505060405180910390a150565b61239a6137ab565b60c0604051908101604052803373ffffffffffffffffffffffffffffffffffffffff1681526020018681526020018581526020018481526020018381526020016001151581525090506015819080600181540180825580915050906001820390600052602060002090600c02016000909192909190915060008201518160000160006101000a81548173ffffffffffffffffffffffffffffffffffffffff021916908373ffffffffffffffffffffffffffffffffffffffff16021790555060208201518160010190600261246f929190613813565b50604082015181600301906002612487929190613853565b5060608201518160070190600261249f929190613813565b506080820151816009019060026124b7929190613813565b5060a082015181600b0160006101000a81548160ff0219169083151502179055505050507f3198a238243ab0d4aeea80d0f4f55a6a0a8cccb4e2b5a96c21685d6fc317cc916014546040518082815260200191505060405180910390a161252a60016014546129b190919063ffffffff16565b6014819055505050505050565b6000806002600084815260200190815260200160002060009054906101000a900473ffffffffffffffffffffffffffffffffffffffff169050600073ffffffffffffffffffffffffffffffffffffffff168173ffffffffffffffffffffffffffffffffffffffff161415915050919050565b6000806125b583611a9d565b90508073ffffffffffffffffffffffffffffffffffffffff168473ffffffffffffffffffffffffffffffffffffffff16148061262457508373ffffffffffffffffffffffffffffffffffffffff1661260c84611100565b73ffffffffffffffffffffffffffffffffffffffff16145b806126355750612634818561215f565b5b91505092915050565b6126498383836129d2565b6126538382612c02565b61265d8282612da6565b505050565b61266c8282612e6d565b6126768282612da6565b61267f81613089565b5050565b61268c81612537565b151561269757600080fd5b61274360118054600181600116156101000203166002900480601f0160208091040260200160405190810160405280929190818152602001828054600181600116156101000203166002900480156127305780601f1061270557610100808354040283529160200191612730565b820191906000526020600020905b81548152906001019060200180831161271357829003601f168201915b505050505061273e836130d5565b61322e565b6012600083815260200190815260200160002090805190602001906127699291906138a3565b5050565b600081600001549050919050565b600061279c8473ffffffffffffffffffffffffffffffffffffffff1661299e565b15156127ab5760019050612996565b60008473ffffffffffffffffffffffffffffffffffffffff1663150b7a02338887876040518563ffffffff167c0100000000000000000000000000000000000000000000000000000000028152600401808573ffffffffffffffffffffffffffffffffffffffff1673ffffffffffffffffffffffffffffffffffffffff1681526020018473ffffffffffffffffffffffffffffffffffffffff1673ffffffffffffffffffffffffffffffffffffffff16815260200183815260200180602001828103825283818151815260200191508051906020019080838360005b838110156128a2578082015181840152602081019050612887565b50505050905090810190601f1680156128cf5780820380516001836020036101000a031916815260200191505b5095505050505050602060405180830381600087803b1580156128f157600080fd5b505af1158015612905573d6000803e3d6000fd5b505050506040513d602081101561291b57600080fd5b8101908080519060200190929190505050905063150b7a027c0100000000000000000000000000000000000000000000000000000000027bffffffffffffffffffffffffffffffffffffffffffffffffffffffff1916817bffffffffffffffffffffffffffffffffffffffffffffffffffffffff1916149150505b949350505050565b600080823b905060008111915050919050565b60008082840190508381101515156129c857600080fd5b8091505092915050565b6129db81611a9d565b73ffffffffffffffffffffffffffffffffffffffff168373ffffffffffffffffffffffffffffffffffffffff16141515612a1457600080fd5b600073ffffffffffffffffffffffffffffffffffffffff168273ffffffffffffffffffffffffffffffffffffffff1614151515612ab9576040517f08c379a00000000000000000000000000000000000000000000000000000000081526004018080602001828103825260188152602001807f6d696e7420746f20746865207a65726f2061646472657373000000000000000081525060200191505060405180910390fd5b612ac281613275565b612b09600460008473ffffffffffffffffffffffffffffffffffffffff1673ffffffffffffffffffffffffffffffffffffffff168152602001908152602001600020613335565b612b50600460008573ffffffffffffffffffffffffffffffffffffffff1673ffffffffffffffffffffffffffffffffffffffff16815260200190815260200160002061334b565b816002600083815260200190815260200160002060006101000a81548173ffffffffffffffffffffffffffffffffffffffff021916908373ffffffffffffffffffffffffffffffffffffffff160217905550808273ffffffffffffffffffffffffffffffffffffffff168473ffffffffffffffffffffffffffffffffffffffff167fddf252ad1be2c89b69c2b068fc378daa952ba7f163c4a11628f55a4df523b3ef60405160405180910390a4505050565b6000612c5a6001600660008673ffffffffffffffffffffffffffffffffffffffff1673ffffffffffffffffffffffffffffffffffffffff1681526020019081526020016000208054905061336e90919063ffffffff16565b90506000600760008481526020019081526020016000205490508181141515612d4d576000600660008673ffffffffffffffffffffffffffffffffffffffff1673ffffffffffffffffffffffffffffffffffffffff16815260200190815260200160002083815481101515612ccb57fe5b9060005260206000200154905080600660008773ffffffffffffffffffffffffffffffffffffffff1673ffffffffffffffffffffffffffffffffffffffff16815260200190815260200160002083815481101515612d2557fe5b9060005260206000200181905550816007600083815260200190815260200160002081905550505b600660008573ffffffffffffffffffffffffffffffffffffffff1673ffffffffffffffffffffffffffffffffffffffff168152602001908152602001600020805480919060019003612d9f9190613923565b5050505050565b600660008373ffffffffffffffffffffffffffffffffffffffff1673ffffffffffffffffffffffffffffffffffffffff168152602001908152602001600020805490506007600083815260200190815260200160002081905550600660008373ffffffffffffffffffffffffffffffffffffffff1673ffffffffffffffffffffffffffffffffffffffff1681526020019081526020016000208190806001815401808255809150509060018203906000526020600020016000909192909190915055505050565b600073ffffffffffffffffffffffffffffffffffffffff168273ffffffffffffffffffffffffffffffffffffffff1614151515612f12576040517f08c379a00000000000000000000000000000000000000000000000000000000081526004018080602001828103825260188152602001807f6d696e7420746f20746865207a65726f2061646472657373000000000000000081525060200191505060405180910390fd5b612f1b81612537565b151515612f90576040517f08c379a00000000000000000000000000000000000000000000000000000000081526004018080602001828103825260148152602001807f746f6b656e20616c7265616479206d696e74656400000000000000000000000081525060200191505060405180910390fd5b816002600083815260200190815260200160002060006101000a81548173ffffffffffffffffffffffffffffffffffffffff021916908373ffffffffffffffffffffffffffffffffffffffff160217905550613029600460008473ffffffffffffffffffffffffffffffffffffffff1673ffffffffffffffffffffffffffffffffffffffff168152602001908152602001600020613335565b808273ffffffffffffffffffffffffffffffffffffffff16600073ffffffffffffffffffffffffffffffffffffffff167fddf252ad1be2c89b69c2b068fc378daa952ba7f163c4a11628f55a4df523b3ef60405160405180910390a45050565b6008805490506009600083815260200190815260200160002081905550600881908060018154018082558091505090600182039060005260206000200160009091929091909150555050565b6060600082141561311d576040805190810160405280600181526020017f30000000000000000000000000000000000000000000000000000000000000008152509050613229565b600082905060005b60008214151561314b578080600101915050600a8281151561314357fe5b049150613125565b6060816040519080825280601f01601f1916602001820160405280156131805781602001600182028038833980820191505090505b50905060006001830390505b60008614151561322157600a868115156131a257fe5b066030017f0100000000000000000000000000000000000000000000000000000000000000028282806001900393508151811015156131dd57fe5b9060200101907effffffffffffffffffffffffffffffffffffffffffffffffffffffffffffff1916908160001a905350600a8681151561321957fe5b04955061318c565b819450505050505b919050565b606061326d8383602060405190810160405280600081525060206040519081016040528060008152506020604051908101604052806000815250613390565b905092915050565b600073ffffffffffffffffffffffffffffffffffffffff166003600083815260200190815260200160002060009054906101000a900473ffffffffffffffffffffffffffffffffffffffff1673ffffffffffffffffffffffffffffffffffffffff161415156133325760006003600083815260200190815260200160002060006101000a81548173ffffffffffffffffffffffffffffffffffffffff021916908373ffffffffffffffffffffffffffffffffffffffff1602179055505b50565b6001816000016000828254019250508190555050565b6133636001826000015461336e90919063ffffffff16565b816000018190555050565b600082821115151561337f57600080fd5b600082840390508091505092915050565b6060808690506060869050606086905060608690506060869050606081518351855187518951010101016040519080825280601f01601f1916602001820160405280156133ec5781602001600182028038833980820191505090505b509050606081905060008090506000809050600090505b88518110156134b657888181518110151561341a57fe5b9060200101517f010000000000000000000000000000000000000000000000000000000000000090047f010000000000000000000000000000000000000000000000000000000000000002838380600101945081518110151561347957fe5b9060200101907effffffffffffffffffffffffffffffffffffffffffffffffffffffffffffff1916908160001a9053508080600101915050613403565b600090505b875181101561356e5787818151811015156134d257fe5b9060200101517f010000000000000000000000000000000000000000000000000000000000000090047f010000000000000000000000000000000000000000000000000000000000000002838380600101945081518110151561353157fe5b9060200101907effffffffffffffffffffffffffffffffffffffffffffffffffffffffffffff1916908160001a90535080806001019150506134bb565b600090505b865181101561362657868181518110151561358a57fe5b9060200101517f010000000000000000000000000000000000000000000000000000000000000090047f01000000000000000000000000000000000000000000000000000000000000000283838060010194508151811015156135e957fe5b9060200101907effffffffffffffffffffffffffffffffffffffffffffffffffffffffffffff1916908160001a9053508080600101915050613573565b600090505b85518110156136de57858181518110151561364257fe5b9060200101517f010000000000000000000000000000000000000000000000000000000000000090047f01000000000000000000000000000000000000000000000000000000000000000283838060010194508151811015156136a157fe5b9060200101907effffffffffffffffffffffffffffffffffffffffffffffffffffffffffffff1916908160001a905350808060010191505061362b565b600090505b84518110156137965784818151811015156136fa57fe5b9060200101517f010000000000000000000000000000000000000000000000000000000000000090047f010000000000000000000000000000000000000000000000000000000000000002838380600101945081518110151561375957fe5b9060200101907effffffffffffffffffffffffffffffffffffffffffffffffffffffffffffff1916908160001a90535080806001019150506136e3565b82995050505050505050505095945050505050565b61018060405190810160405280600073ffffffffffffffffffffffffffffffffffffffff1681526020016137dd61394f565b81526020016137ea613971565b81526020016137f761394f565b815260200161380461394f565b81526020016000151581525090565b8260028101928215613842579160200282015b82811115613841578251825591602001919060010190613826565b5b50905061384f919061399f565b5090565b82600280028101928215613892579160200282015b8281111561389157825182906002613881929190613813565b5091602001919060020190613868565b5b50905061389f91906139c4565b5090565b828054600181600116156101000203166002900490600052602060002090601f016020900481019282601f106138e457805160ff1916838001178555613912565b82800160010185558215613912579182015b828111156139115782518255916020019190600101906138f6565b5b50905061391f919061399f565b5090565b81548183558181111561394a57818360005260206000209182019101613949919061399f565b5b505050565b6040805190810160405280600290602082028038833980820191505090505090565b6080604051908101604052806002905b61398961394f565b8152602001906001900390816139815790505090565b6139c191905b808211156139bd5760008160009055506001016139a5565b5090565b90565b6139ed91905b808211156139e957600081816139e091906139f0565b506002016139ca565b5090565b90565b50600081556001016000905556fea165627a7a723058203a98de16dbb8960a90df71a806cad90bb8eaf67fbf4a5ee24adb826b19631a8c0029608060405234801561001057600080fd5b506111a5806100206000396000f3fe608060405260043610610041576000357c0100000000000000000000000000000000000000000000000000000000900463ffffffff168063621e9ec014610046575b600080fd5b34801561005257600080fd5b506101b2600480360361014081101561006a57600080fd5b8101908080604001906002806020026040519081016040528092919082600260200280828437600081840152601f19601f82011690508083019250505050505091929192908060800190600280602002604051908101604052809291906000905b8282101561011f578382604002016002806020026040519081016040528092919082600260200280828437600081840152601f19601f820116905080830192505050505050815260200190600101906100cb565b50505050919291929080604001906002806020026040519081016040528092919082600260200280828437600081840152601f19601f820116905080830192505050505050919291929080604001906002806020026040519081016040528092919082600260200280828437600081840152601f19601f82011690508083019250505050505091929192905050506101cc565b604051808215151515815260200191505060405180910390f35b60006101d6611015565b60408051908101604052808760006002811015156101f057fe5b6020020151815260200187600160028110151561020957fe5b602002015181525081600001819052506040805190810160405280604080519081016040528088600060028110151561023e57fe5b6020020151600060028110151561025157fe5b6020020151815260200188600060028110151561026a57fe5b6020020151600160028110151561027d57fe5b6020020151815250815260200160408051908101604052808860016002811015156102a457fe5b602002015160006002811015156102b757fe5b602002015181526020018860016002811015156102d057fe5b602002015160016002811015156102e357fe5b60200201518152508152508160200181905250604080519081016040528085600060028110151561031057fe5b6020020151815260200185600160028110151561032957fe5b602002015181525081604001819052506060600260405190808252806020026020018201604052801561036b5781602001602082028038833980820191505090505b50905060008090505b60028110156103b957848160028110151561038b57fe5b6020020151828281518110151561039e57fe5b90602001906020020181815250508080600101915050610374565b5060006103c68284610474565b1415610465577f3f3cfdb26fb5f9f1786ab4f1a1f9cd4c0b5e726cbdfc26e495261731aad44e396040518080602001828103825260228152602001807f5472616e73616374696f6e207375636365737366756c6c79207665726966696581526020017f642e00000000000000000000000000000000000000000000000000000000000081525060400191505060405180910390a160019250505061046c565b6000925050505b949350505050565b600061047e61104a565b6104866105b1565b9050806080015151600185510114151561049f57600080fd5b6104a7611093565b6040805190810160405280600081526020016000815250905060008090505b855181101561052657610517826105128560800151600185018151811015156104eb57fe5b90602001906020020151898581518110151561050357fe5b90602001906020020151610a09565b610aa5565b915080806001019150506104c6565b5061054d818360800151600081518110151561053e57fe5b90602001906020020151610aa5565b90506105938460000151856020015161056584610b62565b85604001516105778960400151610b62565b87606001516105898960000151610b62565b8960200151610bfe565b15156105a4576001925050506105ab565b6000925050505b92915050565b6105b961104a565b60408051908101604052807f240737f20cb1aa6f8826c44ce334ede2e86c7ebffa27684a3c15e4dc4ecb854381526020017f2e4f32bb9c59b6869a18781464a4860d09846da033d884a2491133d538e8db608152508160000181905250604080519081016040528060408051908101604052807f1b119105fcefe400ee2fc38b012c093bf251327c9b066817e6fe88b57402812581526020017e1d9bb158dc82e90bf1e490173581856f89ba890686750f09cd896fb1a775fb815250815260200160408051908101604052807f216dc5370b7cd0a8abed0b1684d12edd40e3b893dc0e200bfd61045298ca3e8681526020017f28330415a50903cfc55718a7345bcfe22188448ddbe7d1c2219a987f4bc0d5888152508152508160200181905250604080519081016040528060408051908101604052807f20ed418814eabda6c7cbef4e90823ebab06f5cb9e16ac816548a251e79d7869081526020017f0df7ca95ae5eeab6be50d9567c67d44ef0f195a4c541a436c7867e0190f045e1815250815260200160408051908101604052807f10e30feaaa87f6f2e26edccc29211732b236b09fb8ba2673ac76c435d1f26a0381526020017f1ae3ae214683f85990b9ab0fb6a4ad9a43d1e3cbd09da474bea1089db2621ec68152508152508160400181905250604080519081016040528060408051908101604052807f0afc079719bc4b83845888e97f3b1b0ef14aacbb918a0a882e80f270f23c88a981526020017f2e18ef76eeda1970b4f5bfd6946c94156769451781484d66985312e82f74ed2b815250815260200160408051908101604052807f07c3f8b6a24ae45748ad86aac99f124588a423bb393e9fde02a984ff3b17c33e81526020017f0dd7862f3cbfb339104b7fab46070089a713c1422e1e986daa2926617c3fa3168152508152508160600181905250600360405190808252806020026020018201604052801561089f57816020015b61088c6110ad565b8152602001906001900390816108845790505b50816080018190525060408051908101604052807f1b6056fea16fdf2bf757b468716c213eda4def77305221712ec928a2c307c5d881526020017f153063f46524c835cb374bf7af12a11006803e22d3f10541581e11103e62ded38152508160800151600081518110151561091057fe5b9060200190602002018190525060408051908101604052807f22a164d21e42450a2ba40a66c6dd9dabdf815df113776738ff48600fd9e35b6581526020017f2d243eb3c0abfb544258d6e66f7ffae8fc9027f2a27e6dd1db8cedd4fedd609d8152508160800151600181518110151561098557fe5b9060200190602002018190525060408051908101604052807e5253af8b11d24333d8a67c67ba678716cdc09621432e65e848aeeb9b0d394d81526020017f1c6cbab869e3b245ac92d6dcdf8a1fac4c0f8a3f1ffe5cd88c3fa78ba94c6771815250816080015160028151811015156109f957fe5b9060200190602002018190525090565b610a11611093565b610a196110c7565b8360000151816000600381101515610a2d57fe5b6020020181815250508360200151816001600381101515610a4a57fe5b60200201818152505082816002600381101515610a6357fe5b6020020181815250506000606083608084600060076107d05a03f190508060008114610a8e57610a90565bfe5b50801515610a9d57600080fd5b505092915050565b610aad611093565b610ab56110ea565b8360000151816000600481101515610ac957fe5b6020020181815250508360200151816001600481101515610ae657fe5b6020020181815250508260000151816002600481101515610b0357fe5b6020020181815250508260200151816003600481101515610b2057fe5b602002018181525050600060608360c084600060066107d05a03f190508060008114610b4b57610b4d565bfe5b50801515610b5a57600080fd5b505092915050565b610b6a611093565b60007f30644e72e131a029b85045b68181585d97816a916871ca8d3c208c16d87cfd47905060008360000151148015610ba7575060008360200151145b15610bcb576040805190810160405280600081526020016000815250915050610bf9565b604080519081016040528084600001518152602001828560200151811515610bef57fe5b0683038152509150505b919050565b600060606004604051908082528060200260200182016040528015610c3d57816020015b610c2a6110ad565b815260200190600190039081610c225790505b50905060606004604051908082528060200260200182016040528015610c7d57816020015b610c6a61110d565b815260200190600190039081610c625790505b5090508a826000815181101515610c9057fe5b9060200190602002018190525088826001815181101515610cad57fe5b9060200190602002018190525086826002815181101515610cca57fe5b9060200190602002018190525084826003815181101515610ce757fe5b9060200190602002018190525089816000815181101515610d0457fe5b9060200190602002018190525087816001815181101515610d2157fe5b9060200190602002018190525085816002815181101515610d3e57fe5b9060200190602002018190525083816003815181101515610d5b57fe5b90602001906020020181905250610d728282610d82565b9250505098975050505050505050565b600081518351141515610d9457600080fd5b6000835190506000600682029050606081604051908082528060200260200182016040528015610dd35781602001602082028038833980820191505090505b50905060008090505b83811015610fb1578681815181101515610df257fe5b90602001906020020151600001518260006006840201815181101515610e1457fe5b90602001906020020181815250508681815181101515610e3057fe5b90602001906020020151602001518260016006840201815181101515610e5257fe5b90602001906020020181815250508581815181101515610e6e57fe5b90602001906020020151600001516000600281101515610e8a57fe5b60200201518260026006840201815181101515610ea357fe5b90602001906020020181815250508581815181101515610ebf57fe5b90602001906020020151600001516001600281101515610edb57fe5b60200201518260036006840201815181101515610ef457fe5b90602001906020020181815250508581815181101515610f1057fe5b90602001906020020151602001516000600281101515610f2c57fe5b60200201518260046006840201815181101515610f4557fe5b90602001906020020181815250508581815181101515610f6157fe5b90602001906020020151602001516001600281101515610f7d57fe5b60200201518260056006840201815181101515610f9657fe5b90602001906020020181815250508080600101915050610ddc565b50610fba611134565b60006020826020860260208601600060086107d05a03f190508060008114610fe157610fe3565bfe5b50801515610ff057600080fd5b600082600060018110151561100157fe5b602002015114159550505050505092915050565b6101006040519081016040528061102a6110ad565b815260200161103761110d565b81526020016110446110ad565b81525090565b6101e06040519081016040528061105f6110ad565b815260200161106c61110d565b815260200161107961110d565b815260200161108661110d565b8152602001606081525090565b604080519081016040528060008152602001600081525090565b604080519081016040528060008152602001600081525090565b606060405190810160405280600390602082028038833980820191505090505090565b608060405190810160405280600490602082028038833980820191505090505090565b608060405190810160405280611121611157565b815260200161112e611157565b81525090565b602060405190810160405280600190602082028038833980820191505090505090565b604080519081016040528060029060208202803883398082019150509050509056fea165627a7a723058201adcdd8d6ff86399fb089a5775c9289b894e816124cd85f822ec4d1d206a1b1a0029",
  "source": "pragma solidity >=0.4.21 <0.6.0;\r\n\r\n// TODO define a contract call to the zokrates generated solidity contract <Verifier> or <renamedVerifier>\r\nimport \"./verifier.sol\";\r\nimport 'openzeppelin-solidity/contracts/math/SafeMath.sol';\r\nimport \"./ERC721Mintable.sol\";\r\n\r\n\r\n// TODO define another contract named SolnSquareVerifier that inherits from your ERC721Mintable class\r\ncontract SolnSquareVerifier is ERC721MintableComplete {\r\n\r\n    using SafeMath for uint;\r\n    Verifier verifier = new Verifier();\r\n\r\n\r\n    // TODO define a solutions struct that can hold an index & an address\r\n    struct Solution {\r\n        address owner;\r\n        uint[2] a;\r\n        uint[2][2] b;\r\n        uint[2] c;\r\n        uint[2] inputs;\r\n        bool exits;\r\n    }\r\n\r\n    uint public counter = 0;\r\n\r\n    \r\n    // TODO define an array of the above struct\r\n    Solution[] public solutions;\r\n \r\n    // TODO define a mapping to store unique solutions submitted\r\n    mapping(uint256 => bool) uniqueSolutions;\r\n\r\n    // TODO Create an event to emit when a solution is added\r\n    event solutionAdded(uint index);\r\n\r\n\r\n    constructor(string memory name, string memory symbol) public ERC721MintableComplete(name, symbol)  {}\r\n\r\n    // TODO Create a function to add the solutions to the array and emit the event\r\n    function addSolution( uint[2] memory a, uint[2][2] memory b, uint[2] memory c, uint[2] memory inputs) public {\r\n        Solution memory sol = Solution(msg.sender, a, b, c, inputs, true);\r\n        solutions.push(sol);\r\n        emit solutionAdded(counter);\r\n        counter = counter.add(1);\r\n    }\r\n\r\n    // TODO Create a function to mint new NFT only after the solution has been verified\r\n    function mintNFT(address to, uint256 tokenId, uint index) public returns (bool){\r\n        //  - make sure the solution is unique (has not been used before)\r\n        require(solutions[index].owner == msg.sender,\"Only solution owner can mint this token.\");\r\n        require(!uniqueSolutions[index],\"Solution already added\");\r\n        require(verifier.verifyTx(solutions[index].a, solutions[index].b, solutions[index].c, solutions[index].inputs),\"Invalid proof\");\r\n        //  - make sure you handle metadata as well as tokenSupply\r\n        super.mint(to, tokenId);\r\n        uniqueSolutions[index] = true;\r\n\r\n        return true;\r\n    }\r\n}\r\n\r\n\r\n\r\n\r\n  \r\n\r\n\r\n\r\n\r\n\r\n\r\n\r\n\r\n\r\n\r\n\r\n\r\n\r\n\r\n\r\n\r\n\r\n\r\n\r\n\r\n\r\n\r\n\r\n\r\n\r\n\r\n",
  "sourcePath": "C:/Users/Ahmed/Desktop/GUC/Blockchain/Blockchain-Capstone/eth-contracts/contracts/SolnSquareVerifier.sol",
  "compiler": {
    "name": "solc",
    "version": "0.5.0+commit.1d4f565a.Emscripten.clang"
  },
  "schemaVersion": "3.0.1",
  "updatedAt": "2020-06-22T13:46:54.283Z",
  "devdoc": {
    "methods": {
      "approve(address,uint256)": {
        "details": "Approves another address to transfer the given token ID \r"
      },
      "isApprovedForAll(address,address)": {
        "details": "Tells whether an operator is approved by a given owner\r",
        "params": {
          "operator": "operator address which you want to query the approval of\r",
          "owner": "owner address which you want to query the approval of\r"
        },
        "return": "bool whether the given operator is approved by the given owner\r"
      },
      "setApprovalForAll(address,bool)": {
        "details": "Sets or unsets the approval of a given operator\r An operator is allowed to transfer all tokens of the sender on their behalf\r",
        "params": {
          "approved": "representing the status of the approval to be set\r",
          "to": "operator address to set the approval\r"
        }
      },
      "supportsInterface(bytes4)": {
        "details": "implement supportsInterface(bytes4) using a lookup table\r"
      },
      "tokenByIndex(uint256)": {
        "details": "Gets the token ID at a given index of all the tokens in this contract\r Reverts if the index is greater or equal to the total number of tokens\r",
        "params": {
          "index": "uint256 representing the index to be accessed of the tokens list\r"
        },
        "return": "uint256 token ID at the given index of the tokens list\r"
      },
      "tokenOfOwnerByIndex(address,uint256)": {
        "details": "Gets the token ID at a given index of the tokens list of the requested owner\r",
        "params": {
          "index": "uint256 representing the index to be accessed of the requested tokens list\r",
          "owner": "address owning the tokens list to be accessed\r"
        },
        "return": "uint256 token ID at the given index of the tokens list owned by the requested address\r"
      },
      "totalSupply()": {
        "details": "Gets the total amount of tokens stored by the contract\r",
        "return": "uint256 representing the total amount of tokens\r"
      }
    }
  },
  "userdoc": {
    "methods": {}
  }
}